:020000040800F2
:1000000000000220196E0008496A00084B6A0008C7
:100010004D6A00084F6A0008516A0008000000009D
:10002000000000000000000000000000536A00080B
:10003000556A000800000000576A0008596A000865
:10004000696E0008696E0008696E0008696E000834
:10005000696E0008696E0008696E0008696E000824
:10006000696E0008696E0008656A0008696E00081C
:10007000696E0008696E0008696E0008696E000804
:10008000696E0008696E0008716A000800000000CF
:10009000000000000000000000000000696E000881
:1000A000696E0008816A0008916A0008696E00089C
:1000B000696E0008A16A0008696E0008696E000890
:1000C000696E0008696E0008696E0008696E0008B4
:1000D000696E0008B16A0008696E0008000000003F
:1000E000696E0008696E0008696E00080000000073
:1000F000000000000000000000000000696E000821
:1001000000000000696E0008696E0008696E000852
:1001100000000000000000000000000000000000DF
:10012000C16A0008696E0008696E0008696E0008FF
:10013000696E0008000000000000000000000000E0
:10014000000000000000000000000000696E0008D0
:10015000696E0008696E0008696E0008696E000823
:10016000696E0008696E00080000000000000000D1
:10017000000000000000000000000000000000007F
:1001800000000000696E0008000000000000000090
:08019000696E0008696E0008A9
:1001C00010B5054C237833B9044B13B10448AFF391
:1001D00000800123237010BDD4090020000000001E
:1001E00040AA000808B5034B1BB103490348AFF30D
:1001F000008008BD00000000D809002040AA0008C7
:1002000081F0004102E000BF83F0004330B54FEAC7
:1002100041044FEA430594EA050F08BF90EA020F34
:100220001FBF54EA000C55EA020C7FEA645C7FEAC7
:10023000655C00F0E2804FEA5454D4EB5555B8BFEA
:100240006D420CDD2C4480EA020281EA030382EA5B
:10025000000083EA010180EA020281EA0303362DED
:1002600088BF30BD11F0004F4FEA01314FF4801CC0
:100270004CEA113102D0404261EB410113F0004FD2
:100280004FEA03334CEA133302D0524263EB430389
:1002900094EA050F00F0A780A4F10104D5F1200E27
:1002A0000DDB02FA0EFC22FA05F2801841F1000182
:1002B00003FA0EF2801843FA05F359410EE0A5F156
:1002C00020050EF1200E012A03FA0EFC28BF4CF087
:1002D000020C43FA05F3C01851EBE37101F000453D
:1002E00007D54FF0000EDCF1000C7EEB00006EEB4A
:1002F0000101B1F5801F1BD3B1F5001F0CD34908D4
:100300005FEA30004FEA3C0C04F101044FEA44522A
:1003100012F5800F80F09A80BCF1004F08BF5FEAB1
:10032000500C50F1000041EB045141EA050130BD91
:100330005FEA4C0C404141EB010111F4801FA4F134
:100340000104E9D191F0000F04BF01460020B1FA89
:1003500081F308BF2033A3F10B03B3F120020CDAC1
:100360000C3208DD02F1140CC2F10C0201FA0CF09F
:1003700021FA02F10CE002F11402D8BFC2F1200C04
:1003800001FA02F120FA0CFCDCBF41EA0C019040BA
:10039000E41AA2BF01EB0451294330BD6FEA040403
:1003A0001F3C1CDA0C340EDC04F11404C4F12002EE
:1003B00020FA04F001FA02F340EA030021FA04F300
:1003C00045EA030130BDC4F10C04C4F1200220FA57
:1003D00002F001FA04F340EA0300294630BD21FA95
:1003E00004F0294630BD94F0000F83F4801306BF5B
:1003F00081F480110134013D4EE77FEA645C18BF4F
:100400007FEA655C29D094EA050F08BF90EA020FE5
:1004100005D054EA000C04BF1946104630BD91EADD
:10042000030F1EBF0021002030BD5FEA545C05D1E0
:100430004000494128BF41F0004130BD14F580041F
:100440003CBF01F5801130BD01F0004545F0FE4193
:1004500041F470014FF0000030BD7FEA645C1ABFC8
:10046000194610467FEA655C1CBF0B46024650EAFF
:10047000013406BF52EA033591EA030F41F400212B
:1004800030BD00BF90F0000F04BF0021704730B5B1
:100490004FF4806404F132044FF000054FF0000186
:1004A00050E700BF90F0000F04BF0021704730B547
:1004B0004FF4806404F1320410F0004548BF40421C
:1004C0004FF000013EE700BF42004FEAE2014FEA71
:1004D00031014FEA02701FBF12F07F4393F07F4F4C
:1004E00081F06051704732F07F4208BF704793F04F
:1004F0007F4F04BF41F40021704730B54FF4607462
:1005000001F0004521F000411CE700BF50EA010264
:1005100008BF704730B54FF000050AE050EA01020D
:1005200008BF704730B511F0004502D5404261EB7D
:1005300041014FF4806404F132045FEA915C3FF4BE
:10054000D8AE4FF003025FEADC0C18BF03325FEA5B
:10055000DC0C18BF033202EBDC02C2F1200300FA0C
:1005600003FC20FA02F001FA03FE40EA0E0021FA31
:1005700002F11444BDE600BF70B54FF0FF0C4CF41F
:10058000E06C1CEA11541DBF1CEA135594EA0C0FD1
:1005900095EA0C0F00F0DEF82C4481EA030621EA0C
:1005A0004C5123EA4C5350EA013518BF52EA033547
:1005B00041F4801143F4801338D0A0FB02CE4FF0F9
:1005C0000005E1FB02E506F00042E0FB03E54FF029
:1005D0000006E1FB03569CF0000F18BF4EF0010E21
:1005E000A4F1FF04B6F5007F64F5407404D25FEA1D
:1005F0004E0E6D4146EB060642EAC62141EA5551D0
:100600004FEAC52040EA5E504FEACE2EB4F1FD0C11
:1006100088BFBCF5E06F1ED8BEF1004F08BF5FEA8F
:10062000500E50F1000041EB045170BD06F0004641
:1006300046EA010140EA020081EA0301B4EB5C04EE
:10064000C2BFD4EB0C0541EA045170BD41F48011E6
:100650004FF0000E013C00F3AB8014F1360FDEBF0B
:10066000002001F0004170BDC4F10004203C35DAE7
:100670000C341BDC04F11404C4F1200500FA05F36A
:1006800020FA04F001FA05F240EA020001F000420B
:1006900021F0004110EBD37021FA04F642EB060181
:1006A0005EEA430E08BF20EAD37070BDC4F10C04AB
:1006B000C4F1200500FA04F320FA05F001FA04F26F
:1006C00040EA020001F0004110EBD37041F100015B
:1006D0005EEA430E08BF20EAD37070BDC4F1200566
:1006E00000FA05F24EEA020E20FA04F301FA05F2CE
:1006F00043EA020321FA04F001F0004121FA04F276
:1007000020EA020000EBD3705EEA430E08BF20EA45
:10071000D37070BD94F0000F0FD101F0004640007F
:1007200041EB010111F4801F08BF013CF7D041EA01
:10073000060195F0000F18BF704703F00046520005
:1007400043EB030313F4801F08BF013DF7D043EAD6
:100750000603704794EA0C0F0CEA135518BF95EA8C
:100760000C0F0CD050EA410618BF52EA4306D1D113
:1007700081EA030101F000414FF0000070BD50EA32
:10078000410606BF1046194652EA430619D094EABC
:100790000C0F02D150EA013613D195EA0C0F05D1A6
:1007A00052EA03361CBF104619460AD181EA0301FA
:1007B00001F0004141F0FE4141F470014FF00000B2
:1007C00070BD41F0FE4141F4780170BD70B54FF04D
:1007D000FF0C4CF4E06C1CEA11541DBF1CEA1355CD
:1007E00094EA0C0F95EA0C0F00F0A7F8A4EB0504AF
:1007F00081EA030E52EA03354FEA013100F08880A6
:100800004FEA03334FF0805545EA131343EA12636E
:100810004FEA022245EA111545EA10654FEA002623
:100820000EF000419D4208BF964244F1FD0404F5DC
:10083000407402D25B084FEA3202B61A65EB030538
:100840005B084FEA32024FF480104FF4002CB6EBF5
:10085000020E75EB030E22BFB61A754640EA0C0075
:100860005B084FEA3202B6EB020E75EB030E22BFB5
:10087000B61A754640EA5C005B084FEA3202B6EBF6
:10088000020E75EB030E22BFB61A754640EA9C00B5
:100890005B084FEA3202B6EB020E75EB030E22BF85
:1008A000B61A754640EADC0055EA060E18D04FEA43
:1008B000051545EA16754FEA06164FEAC30343EAE3
:1008C00052734FEAC2025FEA1C1CC0D111F4801FB0
:1008D0000BD141EA00014FF000004FF0004CB6E7A9
:1008E00011F4801F04BF01430020B4F1FD0C88BF48
:1008F000BCF5E06F3FF6AFAEB5EB030C04BFB6EB53
:10090000020C5FEA500C50F1000041EB045170BD45
:100910000EF0004E4EEA113114EB5C04C2BFD4EB72
:100920000C0541EA045170BD41F480114FF0000EF6
:10093000013C90E645EA060E8DE60CEA135594EA72
:100940000C0F08BF95EA0C0F3FF43BAF94EA0C0F75
:100950000AD150EA01347FF434AF95EA0C0F7FF4EA
:1009600025AF104619462CE795EA0C0F06D152EA3E
:1009700003353FF4FDAE1046194622E750EA410622
:1009800018BF52EA43067FF4C5AE50EA41047FF433
:100990000DAF52EA43057FF4EBAE12E74FF0FF3C98
:1009A00006E000BF4FF0010C02E000BF4FF0010C69
:1009B0004DF804CD4FEA410C7FEA6C5C4FEA430CE2
:1009C00018BF7FEA6C5C1BD001B050EA410C0CBF31
:1009D00052EA430C91EA030F02BF90EA020F002093
:1009E000704710F1000F91EA030F58BF994208BFFA
:1009F00090422CBFD8176FEAE37040F001007047B7
:100A00004FEA410C7FEA6C5C02D150EA013C07D10D
:100A10004FEA430C7FEA6C5CD6D152EA033CD3D058
:100A20005DF8040B704700BF8446104662468C4652
:100A30001946634600E000BF01B5FFF7B7FF002885
:100A400048BF10F1000F01BD4DF808EDFFF7F4FFAE
:100A50000CBF012000205DF808FB00BF4DF808ED39
:100A6000FFF7EAFF34BF012000205DF808FB00BF5C
:100A70004DF808EDFFF7E0FF94BF012000205DF87E
:100A800008FB00BF4DF808EDFFF7CEFF94BF012033
:100A900000205DF808FB00BF4DF808EDFFF7C4FF2C
:100AA00034BF012000205DF808FB00BF4FEA41027F
:100AB00012F5001215D211D56FF47873B3EB6252B0
:100AC00012D94FEAC12343F0004343EA505311F0D7
:100AD000004F23FA02F018BF404270474FF0000069
:100AE000704750EA013005D111F0004008BF6FF0A7
:100AF000004070474FF00000704700BF53B94AB93B
:100B0000002908BF00281CBF4FF0FF314FF0FF3015
:100B100000F072B9ADF1080C6DE904CE00F006F8F2
:100B2000DDF804E0DDE9022304B070472DE9F04769
:100B3000089E04468846002B4BD18A42154667D949
:100B4000B2FA82F24AB1C2F1200701FA02F320FAA6
:100B500007F7954047EA030894404FEA154E230CE7
:100B6000B8FBFEF71FFA85FC0EFB178843EA084323
:100B700007FB0CF1994209D9EB1807F1FF3080F01F
:100B80001B81994240F21881023F2B445B1AA4B2A8
:100B9000B3FBFEF00EFB103344EA034400FB0CFCF5
:100BA000A44509D92C1900F1FF3380F00781A44531
:100BB00040F2048102382C4440EA0740A4EB0C04C4
:100BC00000271EB1D4400023C6E900433946BDE8E2
:100BD000F0878B4209D9002E00F0EB800027C6E990
:100BE000000138463946BDE8F087B3FA83F7002F95
:100BF00047D18B4202D3824200F2FA80841A61EB21
:100C0000030301209846002EE0D0C6E90048DDE746
:100C100002B9FFDEB2FA82F2002A40F08F80491B4F
:100C20004FEA154E1FFA85F80127B1FBFEFC230C95
:100C30000EFB1C1143EA014308FB0CF1994207D952
:100C4000EB180CF1FF3002D2994200F2CD808446BD
:100C5000591AA3B2B1FBFEF00EFB101443EA044490
:100C600008FB00F8A04507D92C1900F1FF3302D288
:100C7000A04500F2B6801846A4EB080440EA0C40F8
:100C80009FE7C7F1200CBB4022FA0CFE4EEA030E90
:100C900001FA07F420FA0CF521FA0CF34FEA1E488A
:100CA0002543B3FBF8F92C0C08FB19331FFA8EFA15
:100CB00044EA034309FB0AF49C4202FA07F200FAF1
:100CC00007F10BD91EEB030309F1FF3080F0878099
:100CD0009C4240F28480A9F1020973441B1BADB20F
:100CE000B3FBF8F008FB103345EA034400FB0AFAB3
:100CF000A24508D91EEB040400F1FF336BD2A245D4
:100D000069D90238744440EA0940A0FB0289A4EB87
:100D10000A044C45C2464B4654D351D0002E69D0EC
:100D2000B1EB0A0564EB030404FA0CFCFD40FC4043
:100D30004CEA0505C6E90054002747E7C2F1200345
:100D400020FA03F7954001FA02F021FA03F34FEA83
:100D5000154E3843010CB3FBFEF71FFA85F80EFB66
:100D6000173341EA034107FB08F38B4204FA02F40C
:100D700007D9691807F1FF3C2FD28B422DD9023FCA
:100D80002944CB1A81B2B3FBFEF00EFB103341EACB
:100D9000034100FB08F38B4207D9691800F1FF3CBF
:100DA00017D28B4215D902382944C91A40EA07479D
:100DB0003BE73746304609E70746E7E61846FBE6D5
:100DC0004145ABD2B8EB020A69EB0E02013813467B
:100DD000A4E76046E9E7184695E76746D1E781460C
:100DE0007CE702382C4447E7ACF1020C2B442FE798
:100DF000384608E73746E9E6704700BF844641EACF
:100E0000000313F003036DD1403A41D351F8043B82
:100E100040F8043B51F8043B40F8043B51F8043BD4
:100E200040F8043B51F8043B40F8043B51F8043BC4
:100E300040F8043B51F8043B40F8043B51F8043BB4
:100E400040F8043B51F8043B40F8043B51F8043BA4
:100E500040F8043B51F8043B40F8043B51F8043B94
:100E600040F8043B51F8043B40F8043B51F8043B84
:100E700040F8043B51F8043B40F8043B51F8043B74
:100E800040F8043B51F8043B40F8043B403ABDD2E3
:100E9000303211D351F8043B40F8043B51F8043B85
:100EA00040F8043B51F8043B40F8043B51F8043B44
:100EB00040F8043B103AEDD20C3205D351F8043B14
:100EC00040F8043B043AF9D2043208D0D2071CBFE0
:100ED00011F8013B00F8013B01D30B880380604609
:100EE000704700BF082A13D38B078DD010F003037F
:100EF0008AD0C3F10403D21ADB071CBF11F8013BEF
:100F000000F8013B80D331F8023B20F8023B7BE73D
:100F1000043AD9D3013A11F8013B00F8013BF9D268
:100F20000B7803704B7843708B7883706046704702
:100F300000000000000000000000000000000000B1
:100F400090F800F06DE9024520F007016FF0000C09
:100F500010F0070491F820F040F049804FF00004B1
:100F60006FF00700D1E9002391F840F000F108008C
:100F700082FA4CF2A4FA8CF283FA4CF3A2FA8CF3C4
:100F80004BBBD1E9022382FA4CF200F10800A4FA2B
:100F90008CF283FA4CF3A2FA8CF3E3B9D1E904237F
:100FA00082FA4CF200F10800A4FA8CF283FA4CF3B6
:100FB000A2FA8CF37BB9D1E9062301F1200182FA70
:100FC0004CF200F10800A4FA8CF283FA4CF3A2FA76
:100FD0008CF3002BC6D0002A04BF04301A4612BA84
:100FE000B2FA82F2FDE8024500EBD2007047D1E987
:100FF000002304F00305C4F100004FEAC50514F016
:10100000040F91F840F00CFA05F562EA05021CBFE6
:1010100063EA050362464FF00004A9E70000000000
:1010200001F0FF01102A2BDB10F0070F08D010F899
:10103000013B013A8B422DD010F0070F42B3F6D19D
:10104000F0B441EA012141EA014122F007047FF0B6
:1010500000070023F0E80256083C85EA010586EA0D
:10106000010685FA47F5A3FA87F586FA47F6A5FA49
:1010700087F68EB9EED1F0BC01F0FF0102F0070255
:1010800032B110F8013B013A83EA010313B1F8D100
:101090000020704701387047002D06BF35460338E1
:1010A000073815F0010F07D1013015F4807F02BF1A
:1010B000013015F4C03F0130F0BC0138704700BF6B
:1010C0004FEA410C7FEA6C5C02D150EA013C0AD144
:1010D0004FEA430C7FEA6C5C02D152EA033C02D136
:1010E0004FF0000070474FF00100704710B5044604
:1010F0000E4B18784FF47A73B3FBF0F30C4A106878
:10110000B0FBF3F000F0BCFD68B90F2C01D9012051
:101110000AE0002221464FF0FF3000F055FD034B5E
:101120005C60002000E0012010BD00BF0000002036
:101130001C00002008B50B4B1A6842F400721A60BC
:101140001A6842F480621A601A6842F480721A6067
:10115000032000F01BFD0020FFF7C8FF05F02AFC6C
:10116000002008BD003C0240034A1168034B1B7875
:101170000B441360704700BF580A00200000002095
:10118000014B1868704700BF580A002038B5044664
:10119000FFF7F6FF0546B4F1FF3F02D0044B1B7882
:1011A0001C44FFF7EDFF401BA042FAD338BD00BF3F
:1011B0000000002010B504464E4B5A6822F440321D
:1011C0005A605A6841680A435A600268536823F4B7
:1011D0008073536002685368016943EA01235360D6
:1011E0000268536823F04073536002685368816853
:1011F0000B4353600268936823F4006393600268B2
:101200009368C1680B439360826A3B4B9A4259D002
:101210000268936823F07063936002689368816A40
:101220000B4393600268936823F040539360026815
:101230009368C16A0B4393602268936823F00203AA
:10124000936022689368A16943EA41039360236A2B
:10125000002B48D0636A013B072B3ED822685368B5
:1012600043F4006353602268536823F4604353607F
:1012700021684B68626A013A43EA42334B60226854
:10128000D36A23F47003D3622168CB6AE269013A1E
:1012900043EA0253CB622268936823F4007393609D
:1012A00022689368216B43EA412393602268936824
:1012B00023F48063936022689368616943EA812321
:1012C000936010BD0268936823F0706393600268B6
:1012D000936823F040539360AEE740F227610748DC
:1012E00005F01AFBBAE72268536823F400635360E1
:1012F000C5E700BF002301400100000F78AA0008E5
:10130000002800F0E38010B504460268704B9A4252
:1013100004D040F20B116F4805F0FEFA636843B148
:10132000B3F5803F05D0B3F5003F02D0B3F5403FA1
:101330006FD1A36843B1B3F1807F05D0B3F1007FD3
:1013400002D0B3F1407F6AD12369012B6DD8A36924
:10135000012B70D8A36A7BB3B3F1807F2CD0B3F19B
:10136000007F29D0B3F1407F26D0B3F1806F23D026
:10137000B3F1A06F20D0B3F1C06F1DD0B3F1E06F17
:101380001AD0B3F1006F17D0B3F1106F14D0B3F1CE
:10139000206F11D0B3F1306F0ED0B3F1406F0BD08E
:1013A000B3F1506F08D0B3F1606F05D0B3F1706F37
:1013B00002D0494A934244D1E36813B1B3F5006FB8
:1013C00045D1E369013B0F2B47D8236B012B4AD84A
:1013D0006369022B4DD8236A012B50D8A26A3E4B79
:1013E0009A420AD0E36A43B1B3F1805F05D0B3F10A
:1013F000005F02D0B3F1405F47D1236C002B4AD08D
:10140000236C13F0100F4DD00120002384F83C30E2
:1014100010BD4FF486712F4805F07EFA89E740F23F
:101420000D112C4805F078FA8EE74FF487712948A2
:1014300005F072FA8BE740F20F11264805F06CFABE
:1014400088E74FF48871234805F066FAB4E740F264
:101450001111204805F060FAB3E74FF489711D4877
:1014600005F05AFAB1E740F213111A4805F054FAA0
:10147000AEE74FF48A71174805F04EFAABE740F239
:101480001511144805F048FAA8E740F2191111485F
:1014900005F042FAB1E7636484F83C30204604F07A
:1014A00039FCADE7236C23F4885323F0020343F0A7
:1014B000020323642046FFF77DFE00206064236C56
:1014C00023F0030343F0010323649EE701207047E8
:1014D0000020014078AA00080100000F10B582B07A
:1014E0000446002301938369012B24D8E36A43B1A6
:1014F000B3F1805F05D0B3F1005F02D0B3F1405F7C
:101500001FD194F83C30012B76D0012384F83C3075
:1015100023689A6812F0010F1FD19A6842F0010205
:101520009A603A4B1B683A4AA2FB03239B0C03EBDD
:10153000430301930EE040F2E221364805F0ECF956
:10154000D4E740F2E321334805F0E6F9D9E7019BFF
:10155000013B0193019B002BF9D12268936813F0A2
:10156000010F4BD0236C23F4E06323F0010343F419
:1015700080732364536813F4806F05D0236C23F4C5
:10158000405343F480532364236C13F4805F20D0D2
:10159000636C23F006036364002384F83C306FF02F
:1015A000220313602268536843F0806343F02003F2
:1015B0005360194B5B6813F01F0F0DD123689A68B5
:1015C00012F0405F1DD19A6842F080429A6000207C
:1015D00015E000236364DFE72368104A934201D0DB
:1015E00000200CE09A6812F0405F0CD19A6842F03B
:1015F00080429A60002002E0022000E0002002B059
:1016000010BD0020FBE70020F9E700BF1C00002010
:1016100083DE1B4378AA000800230140002001401C
:1016200070B582B004460D461646002301938369C7
:10163000012B25D8E36A43B1B3F1805F05D0B3F144
:10164000005F02D0B3F1405F20D194F83C30012B11
:1016500000F08B80012384F83C3023689A6812F0F4
:10166000010F1FD19A6842F001029A60434B1B6838
:10167000434AA2FB03239B0C03EB430301930EE0BD
:1016800040F205413F4805F047F9D3E740F20641F3
:101690003C4805F041F9D8E7019B013B0193019BD0
:1016A000002BF9D12268936813F0010F5FD0236CEF
:1016B00023F4E06323F0010343F48073236453684D
:1016C00013F4806F05D0236C23F4405343F480530C
:1016D0002364236C13F4805F34D0636C23F006031F
:1016E0006364002384F83C30A36B274ADA63A36B5E
:1016F000264A1A64A36B264ADA6423686FF0220232
:101700001A602268536843F08063536022689368CC
:1017100043F480739360216833462A464C31A06BB2
:1017200000F0ACFC1B4B5B6813F01F0F0DD123685E
:101730009A6812F0405F1DD19A6842F080429A6028
:10174000002015E000236364CBE72368124A93422C
:1017500001D000200CE09A6812F0405F0CD19A682A
:1017600042F080429A60002002E0022000E0002067
:1017700002B070BD0020FBE70020F9E71C0000204C
:1017800083DE1B4378AA00089F170008031800088F
:10179000A11900080023014000200140704708B54E
:1017A000836B1A6C12F0500F03D09B6BDB6C984765
:1017B00008BD1A6C42F400721A641A68916811F03C
:1017C000405F19D19969B9B9D16A11F4700F03D08A
:1017D000916811F4806F0FD1516821F020015160A0
:1017E0001A6C22F480721A641A6C12F4805F03D1AE
:1017F0001A6C42F001021A641846FFF7CFFFD7E7D0
:10180000704708B5806BFFF7FBFF08BD7047704756
:1018100038B504468369012B00F29580E369013BEA
:101820000F2B00F296806369022B00F298802268E9
:101830001168536803F0200311F0020F2DD063B339
:10184000236C13F0100F03D1236C43F40073236453
:10185000936813F0405F19D1A369BBB9D36A13F43D
:10186000700F03D0936813F4806F0FD1536823F087
:1018700020035360236C23F480732364236C13F4DC
:10188000805F03D1236C43F0010323642046FFF7FC
:1018900085FF23686FF012021A60236819685A687E
:1018A00002F0800211F0040F36D0002A34D0226CEE
:1018B00012F0100F03D1226C42F4005222649A6895
:1018C00012F4401F21D19A6B12F4401F03D09A6882
:1018D00012F4806F19D15A6812F4806F15D19A688A
:1018E00012F0405F11D1A2697AB95A6822F08002E1
:1018F0005A60236C23F480532364236C13F4807F99
:1019000003D1236C43F001032364204600F03CF92B
:1019100023686FF00C021A6022681168536803F0A4
:10192000400311F0010F04D01BB1136813F0010F35
:101930001BD122681168536803F0806311F0200FF7
:1019400000D0F3B938BD40F27331144804F0E4FF1D
:1019500064E74FF45D71114804F0DEFF63E740F285
:1019600075310E4804F0D8FF61E7236C43F48033EF
:1019700023642046FFF74AFF23686FF001021A60D4
:10198000D7E7636C43F0020363646FF020051560D2
:101990002046FFF73CFF23681D60D3E778AA0008C4
:1019A00008B5806B40230364436C43F00403436435
:1019B000FFF72DFF08BD000030B583B005460C468B
:1019C000002301930B68122B4ED86368013B0F2B49
:1019D00050D8A368072B53D895F83C30012B00F062
:1019E000C580012385F83C302368092B4ED928682F
:1019F000C2689BB203EB43031E3B072101FA03F3CA
:101A000022EA0303C3602868C268A168238803EB45
:101A100043031E3B01FA03F31343C3606368062BC1
:101A20004AD82868426B03EB8303053B1F2101FA68
:101A300003F322EA030343632868426B636803EB02
:101A40008303053B218801FA03F3134343632A68A8
:101A5000474B9A4260D02A68454B9A4265D0002095
:101A600085F83C0003B030BD40F21551414804F008
:101A700053FFAAE740F216513E4804F04DFFA8E795
:101A800040F217513B4804F047FFA5E72868026978
:101A90009BB203EB4303072101FA03F322EA03039A
:101AA000036128680269A168238803EB430301FAF4
:101AB00003F313430361B1E70C2B16D82868026BBC
:101AC00003EB8303233B1F2101FA03F322EA030301
:101AD00003632868026B636803EB8303233B21885D
:101AE00001FA03F313430363B1E72868C26A03EB07
:101AF0008303413B1F2101FA03F322EA0303C3627C
:101B00002868C26A636803EB8303413B218801FABA
:101B100003F31343C3629AE72368122B9BD1164A3F
:101B2000536843F48003536095E72368134A934254
:101B300001D0112B93D1104A536843F40003536032
:101B400022680E4B9A428AD10D4B1B680D4AA2FBAC
:101B500003239B0C03EB83035A00019202E0019BD9
:101B6000013B0193019B002BF9D178E7022079E733
:101B70000020014078AA0008002301401200001054
:101B80001C00002083DE1B437047000010B5044694
:101B9000C31E042B0FD80A4AD36823F4E0631B0446
:101BA0001B0C240204F4E064234343F0BF6343F4BA
:101BB0000033D36010BDA221024804F0ADFEEAE775
:101BC00000ED00E0B0AA000870B505460C461646C8
:101BD0000F2A25D80F2C28D81B4BDB68C3F3022310
:101BE000C3F10702042A28BF0422191D062921D99E
:101BF000033B4FF0FF3101FA02F224EA02049C4059
:101C000001FA03F326EA03063443002D14DB240112
:101C1000E4B205F1604505F5614585F8004370BD06
:101C2000BA210A4804F078FED4E7BB21074804F043
:101C300073FED1E70023DCE705F00F052401E4B2D1
:101C4000034B5C55EBE700BF00ED00E0B0AA0008D5
:101C500014ED00E010B5041E08DB04F01F02640957
:101C600001239340044A42F8243010BDCE2103489A
:101C700004F052FEF1E700BF00E100E0B0AA000866
:101C80000138B0F1807F0AD2064B5860064AF02135
:101C900082F823100020986007221A607047012004
:101CA000704700BF10E000E000ED00E010B5044612
:101CB000042800D038B9042C0BD0094A136823F04B
:101CC0000403136010BD40F2D911064804F024FE4D
:101CD000F1E7034A136843F004031360F2E700BF1F
:101CE00010E000E0B0AA0008704708B5FFF7FCFF5D
:101CF00008BD30B405682C6824F480242C60046886
:101D000063608368402B05D0036899600368DA60DC
:101D100030BC704703689A600368D960F8E7000038
:101D20000268D3B2103B0B49A1FB03131B090A49FC
:101D3000C95CC165032B06D822F47F7222F003022E
:101D40008265806D704722F47F7222F003020432B4
:101D50008265F6E7ABAAAAAA58AA0008836A826934
:101D600092B9012B0AD01BB1022B01D00020704781
:101D7000C36A13F0807F2CD100207047C36AB3F18F
:101D8000C07F28D000207047B2F5005F05D0022B3D
:101D900029D9032B15D000207047032B03D8DFE887
:101DA00003F01C041C0A00207047C36A13F0807FF4
:101DB00015D100207047C36AB3F1C07F11D0002055
:101DC0007047C36A13F0807F01D001207047002064
:101DD00070470120704701207047012070470120A3
:101DE00070470120704701207047000070B504461D
:101DF000FFF7C6F9002C00F03881054623689C4A9D
:101E0000934231D0183293422ED0183293422BD0C5
:101E10001832934228D01832934225D01832934278
:101E200022D0183293421FD0183293421CD002F5B0
:101E30005672934218D01832934215D018329342FA
:101E400012D0183293420FD0183293420CD018326D
:101E5000934209D01832934206D01832934203D0ED
:101E6000C821844804F058FD6368A3B1B3F1007F32
:101E700011D0B3F1806F0ED0B3F1C06F0BD0B3F1BE
:101E8000006F08D0B3F1206F05D0B3F1406F02D0DE
:101E9000B3F1606F6DD1A3681BB1402B01D0802BD3
:101EA0006CD1E368B3F5007F01D0002B6BD12369BF
:101EB000B3F5806F01D0002B6AD163692BB1B3F504
:101EC000006F02D0B3F5805F67D1A3692BB1B3F582
:101ED000005F02D0B3F5804F64D1E36923B1B3F55D
:101EE000807F01D0202B62D1236A43B1B3F5803FBC
:101EF00005D0B3F5003F02D0B3F5403F5CD1636A33
:101F00000BB1042B5DD1636AC3B1A36A032B5DD807
:101F1000E36A43B1B3F5000F05D0B3F1807F02D07F
:101F2000B3F1C07F57D1236B43B1B3F5001F05D088
:101F3000B3F5800F02D0B3F5C00F51D1002384F860
:101F40003430022384F835302268136823F001030B
:101F5000136023681A6812F0010F46D0FFF710F9DA
:101F6000401B0528F5D920236365032084F835003C
:101F700070BDC9213F4804F0CFFC8CE7CA213D4821
:101F800004F0CAFC8DE7CB213A4804F0C5FC8EE78B
:101F9000CC21384804F0C0FC8FE7CD21354804F04F
:101FA000BBFC92E7CE21334804F0B6FC95E7CF2185
:101FB000304804F0B1FC97E7D0212E4804F0ACFC87
:101FC0009DE7D1212B4804F0A7FC9CE7D6212948A6
:101FD00004F0A2FC9CE7D721264804F09DFCA2E770
:101FE000D821244804F098FCA8E71A682248104039
:101FF0006168A2680A43E1680A4321690A4361698A
:102000000A43A1690A43E1690A43216A0A43024378
:10201000616A04291ED01A602668756925F00705D3
:10202000636A1D43042B07D1A36A1D43E36A1BB1F6
:102030002046FFF793FE90B975612046FFF770FECA
:10204000E26D3F239340836000206065012384F8A4
:1020500035308DE7E16A206B01430A43DBE740231B
:102060006365012084F8350082E7012080E700BF26
:1020700010600240ECAA00083F8010F02DE9F0410A
:1020800004460F4690461D46866D5A1E4FF6FE7357
:102090009A4211D894F83430012B3AD0012384F8B5
:1020A000343094F83530DBB2012B0BD0002384F8A8
:1020B00034300220BDE8F0814FF4EA71164804F094
:1020C0002BFCE7E7022384F83530002363652B46B9
:1020D000424639462046FFF70CFEE26D3F2393400F
:1020E000B3602268136843F01603136022685369D3
:1020F00043F080035361236C23B12268136843F0DB
:10210000080313602268136843F001031360002082
:10211000D0E70220CEE700BFECAA000890F83530E7
:10212000DBB2022B03D080234365012070470523D7
:1021300080F835300268136823F001031360002033
:1021400070470000F0B583B0044600230193724B42
:102150001D68724BA3FB0535AD0A876D3E68C26DE5
:1021600008239340334210D003681A6812F0040F1A
:102170000BD01A6822F004021A60C26D0823934043
:10218000BB60436D43F001034365E26D012393405F
:10219000334209D02268526912F0800F04D0BB602C
:1021A000636D43F002036365E26D042393403342A1
:1021B00009D02268126812F0020F04D0BB60636D70
:1021C00043F004036365E26D10239340334224D04F
:1021D0002268126812F0080F1FD0BB6023681A68CB
:1021E00012F4802F0DD01B6813F4002F04D1236C40
:1021F0009BB12046984710E0A36C73B120469847E6
:102200000BE01A6812F4807F03D11A6822F00802EA
:102210001A60236C0BB120469847E26D202393404F
:10222000334255D02268126812F0100F50D0BB60B4
:1022300094F83530DBB2052B0ED023681A6812F4FF
:10224000802F33D01B6813F4002F2AD1636C002B2E
:102250003ED0204698473BE02268136823F01603DF
:1022600013602268536923F080035361236CA3B188
:102270002268136823F008031360E26D3F23934044
:10228000BB60002384F83430012384F83530236D9B
:10229000002B3FD0204698473CE0A36C002BE7D1B1
:1022A000EBE7E36BA3B12046984711E01A6812F4FC
:1022B000807F09D11A6822F010021A60002384F886
:1022C0003430012384F83530E36B0BB12046984756
:1022D000636DFBB1636D13F0010F17D0052384F814
:1022E00035302268136823F001031360019B01332A
:1022F0000193AB4204D823681B6813F0010FF5D19A
:10230000002384F83430012384F83530E36C0BB1BA
:102310002046984703B0F0BD1C000020B5814E1B3D
:102320002DE9F04782B080460E46A44B984217D064
:1023300003F58063984213D003F5806398420FD071
:1023400003F5806398420BD003F58063984207D071
:1023500003F54063984203D0C321994804F0DCFAA6
:1023600033689AB212B11B0C1B041BB1C4219448F0
:1023700004F0D2FA7368012B1ED9112B1CD0022B4A
:102380001AD0122B18D08F4A934215D002F5801222
:10239000934211D002F5801293420DD0A2F5F812AB
:1023A000934209D002F58012934205D002F58012C3
:1023B000934201D0032B04D1B368022B06D800242A
:1023C00045E0C5217E4804F0A7FAF5E7C6217C4820
:1023D00004F0A2FAF3E7EA21794804F09DFA90E0CC
:1023E000042300E000238B4003430232764941F886
:1023F0002230764B1A68FB4303EA0201706810F43E
:10240000803F01D047EA0201704A1160526803EA36
:102410000201706810F4003F01D047EA02016B4AE4
:102420005160926803EA0201706810F4801F01D0C5
:1024300047EA0201654A9160D2681340716811F45D
:10244000001F01D047EA0203604AD36001340F2C19
:1024500000F2B0800125A54037682F40BD42F5D17C
:102460007368022B01D0122B2BD13369CBB1092B0E
:1024700017D0012B15D0022B13D0042B11D0052B14
:102480000FD0062B0DD0072B0BD0082B09D00A2B11
:1024900007D00C2B05D00F2B03D0D721484804F0D0
:1024A0003BFAE208083258F8220004F007039900CA
:1024B0000F238B4020EA030033698B40034348F825
:1024C0002230D8F800204FEA440A4FF0030909FAF5
:1024D0000AF96FEA090909EA0202736803F00303C3
:1024E00003FA0AF31343C8F8003073685A1E012A2E
:1024F00003D9112B01D0122B18D1F368032B3FF60F
:102500006AAFD8F8082009EA0202F36803FA0AF36E
:102510001343C8F80830D8F8042022EA050273688B
:10252000C3F30015A5401543C8F80450D8F80C3083
:1025300009EA0309B36803FA0AF343EA0903C8F88E
:102540000C30736813F0805F80D000230193204B20
:102550005A6C42F480425A645B6C03F480430193EA
:10256000019BA208911C184B53F8210004F00303AF
:1025700099000F238B4020EA0300104B98453FF44D
:1025800031AF03F5806398450ED003F5806398451D
:102590000CD003F5806398450AD003F58063984515
:1025A0003FF41EAF07231EE701231CE702231AE7AF
:1025B000032318E702B0BDE8F08700BF0000024027
:1025C00024AB00080000111000380140003C01401D
:1025D0000038024070B5064615460C4629B1012D5B
:1025E00009D875B92404B46170BD40F2AF11064832
:1025F00004F092F9F3E74FF4D871034804F08CF932
:10260000EFE7B461F0E700BF24AB000808B5054B65
:102610005B69034200D108BD024B586103F03AFFE9
:10262000F9E700BF003C014003685A6912F4806F6B
:102630000DD06FF480625A610423036400230363A6
:10264000202280F83D2080F83C3001207047002097
:102650007047F8B506460C4617461D461EE02DB1DC
:10266000FEF78EFD069BC01AA84217D900233363DC
:10267000202286F83D2086F83E3086F83C30032044
:102680001AE033685B6924EA03039BB2B3FA83F36D
:102690005B099F420FD1B5F1FF3FE0D1C4F307437F
:1026A000012BEED033689B6924EA03039BB2B3FA93
:1026B00083F35B09EDE70020F8BDF8B504460D464D
:1026C00016461F4632E01A6842F400721A60236808
:1026D0006FF480625A610423236400232363202261
:1026E00084F83D2084F83C3001202DE026B1FEF72F
:1026F00047FDC01BB04219D900232363202284F870
:102700003D2084F83C3003201EE023685B6925EA05
:1027100003039BB2003318BF0123A3B123685A6996
:1027200012F4806FCFD1B6F1FF3FDFD1C5F307437D
:10273000012BEAD023689B6925EA03039BB200338F
:1027400018BF0123E9E70020F8BD0000F0B583B011
:1027500004460D4616461F46C36A042B0DD0012BB6
:102760000BD013F5803F08D0036B122B0AD10268FF
:10277000136843F48073136004E02268136843F421
:10278000807313600097334600224FF001112046FA
:10279000FFF75FFF58BB2369B3F5804F10D1236863
:1027A00005F0FE051D613B46324615492046FFF700
:1027B00084FF0346E0B1236C042B1ED1012317E0F4
:1027C000EB11226803F0060343F0F00313613B466C
:1027D00032460C492046FFF770FF20B1236C042BD2
:1027E00009D1012304E02368EDB21D61DBE7032377
:1027F000184603B0F0BD0323FAE70323F8E700BF50
:10280000020001000800010070B504460D4616469E
:1028100023685B6913F0800F19D12046FFF704FF8E
:10282000B8B9B5F1FF3FF3D025B1FEF7A9FC801B85
:10283000A842EDD9236C43F02003236400232363D3
:10284000202284F83D2084F83C30032000E0002062
:1028500070BD0120FCE770B504460D46164623689E
:102860005B6913F0040F19D12046FFF7DDFEB8B9FC
:10287000B5F1FF3FF3D025B1FEF782FC801BA842E3
:10288000EDD9236C43F0200323640023236320222B
:1028900084F83D2084F83C30032000E0002070BD27
:1028A0000120FCE7002800F0EB8010B50446036827
:1028B000744A93420CD002F58062934208D002F52C
:1028C0008062934204D04FF4B7716F4804F024F84B
:1028D0006368013B6D4A934267D8A36813B1B3F5AF
:1028E000804F68D1E36823F47F7323F00303002B48
:1028F00067D12369B3F5804F02D0B3F5404F66D15D
:102900006369012B69D8A36933F0FE036BD1E369D6
:102910000BB1402B6DD1236A0BB1802B6FD194F892
:102920003D30002B71D0242384F83D302268136899
:1029300023F00103136001F0E5F9554BA3FB0023DD
:102940009B0C226853606168524A914263D80133FC
:102950002268136263684F4A934266D85B00B0FBFB
:10296000F3F0C0F30B03032B00D804202368D861D5
:10297000E369216A22680B4313602369E1682268D6
:102980000B4393606369A16922680B43D36022689B
:10299000136843F00103136000202064202384F8AF
:1029A0003D30206384F83E0010BD40F26F11364880
:1029B00003F0B2FF91E74FF4B871334803F0ACFF76
:1029C00090E740F27111304803F0A6FF91E74FF411
:1029D000B9712D4803F0A0FF92E740F273112A4825
:1029E00003F09AFF8FE74FF4BA71274803F094FF82
:1029F0008DE740F27511244803F08EFF8BE74FF40A
:102A0000BB71214803F088FF89E784F83C302046F9
:102A100003F01CFB87E74FF4967202FB03F31E4A98
:102A2000A2FB03239B09013392E7A16889B903EB59
:102A30004302B0FBF2F2C2F30B02B2FA82F2520985
:102A4000E2B991B903EB4303B0FBF3F040F400406B
:102A50008CE703EB830202EB8202B0FBF2F2C2F3DB
:102A60000B02B2FA82F25209EAE703EB830303EBAB
:102A70008303B0FBF3F040F4404077E7012075E7B3
:102A8000012070470054004060AB00087F1A060028
:102A900083DE1B43A0860100D34D62102DE9F04177
:102AA00084B004460E4690461F46FEF769FB94F834
:102AB0003D30DBB2202B04D00226304604B0BDE806
:102AC000F081054600901923012254492046FFF762
:102AD000C0FD002840F0998094F83C30012B00F0B4
:102AE0009680012384F83C3023681A6812F0010FA5
:102AF00003D11A6842F001021A602268136823F4B5
:102B000000631360212384F83D30102384F83E30A5
:102B100000232364C4F824806785A3F58033E3622F
:102B2000638D23852B460A9A31462046FFF70EFE19
:102B3000064660B1236C042B04D1002384F83C309A
:102B40000126BAE7002384F83C300326B5E70023CA
:102B5000039323685A6903929B690393039B10E0D4
:102B6000236C042B55D12268136843F4007313605F
:102B70000126A2E72A460A992046FFF76CFE0028A4
:102B80002BD1238D002B32D02A460A992046FFF7FD
:102B90003BFE0028E4D1636A5A1C626222681B78FB
:102BA0001361638D013B9BB26385238D013B9BB217
:102BB00023852268516911F0040FDBD0002BD9D096
:102BC000636A591C61621B781361638D013B9BB280
:102BD0006385238D013B2385CCE7236C042B1AD11D
:102BE0002268136843F400731360012665E72268C6
:102BF000136843F400731360202384F83D300023EE
:102C000084F83E3084F83C3057E7022655E7022628
:102C100053E7032651E703264FE700BF02001000E9
:102C20002DE9F04385B00446884691461D46FEF7DF
:102C3000A7FA94F83D30DBB2202B04D002231846CB
:102C400005B0BDE8F08306460090192301225649DD
:102C50002046FFF7FEFC002840F09B8094F83C30B3
:102C6000012B00F09880012384F83C3023681A6817
:102C700012F0010F03D11A6842F001021A602268B3
:102C8000136823F400631360242384F83D30002389
:102C90002364A3F58033E362012735E0A02384F8A1
:102CA0003D3022685369C3F340035269C2F3802266
:102CB00094F83D10C9B253B94AB9A02907D0002DE4
:102CC000ECD0FEF75DFA801BA842EAD9E6E72023A4
:102CD00084F83D3023685A6912F0020F35D11A6822
:102CE00042F400721A6023686FF480625A610096A1
:102CF000192301222C492046FFF7ABFC002850D1B4
:102D00007B1C4F453DD21F462268136843F48073F5
:102D1000136000962B4600224FF001112046FFF76A
:102D200098FC002839D1236808F0FE021A61FEF7EA
:102D300027FA064622685369C3F340035269C2F377
:102D4000802294F83D10C9B2B5E71A6842F40072C7
:102D50001A600023039323685A6903929B690393C3
:102D6000039B0096192301220F492046FFF771FCAF
:102D70000346A0B9202284F83D20002284F83C209C
:102D80005DE7202384F83D30002384F83C300123A4
:102D900055E7022353E7022351E703234FE70323B9
:102DA0004DE703234BE700BF02001000704708B552
:102DB000436A9A1C426202681B88D360438D013BC0
:102DC0009BB24385438D9BB203B108BD0268536833
:102DD00023F0A0031B041B0C5360012380F8413037
:102DE000FFF7E4FFF1E7704708B50368DA68C36AE4
:102DF000991CC1621A80438E013B9BB24386438E6D
:102E00009BB203B108BD0268536823F060031B0442
:102E10001B0C5360012380F84130FFF7E4FFF1E71A
:102E200070470000002800F0328170B50446036846
:102E3000984A934213D0A2F5784293420FD002F5FC
:102E4000806293420BD002F57842934207D002F59C
:102E5000E052934203D0E3218F4803F05DFD6368A5
:102E60004BB1B3F5807F06D0B3F5007F03D0B3F547
:102E7000407F40F08280A3683BB1102B05D0202B0F
:102E800003D0302B01D0B02B7CD1E368012B03D9C8
:102E9000032B01D0052B7AD12369B3F5007F01D034
:102EA000002B79D16369A3F5FA517C4A914201D98B
:102EB000022B76D1A3690BB1082B77D1E369012BE3
:102EC00079D8022584F84150754B6363204603F09E
:102ED0005BF92268D36923F47B6323F00F03D3618A
:102EE00023681D622368DD696369022B00F082801C
:102EF000E368002B64D02026A368202B00D876003E
:102F0000012001F085F82369B3F5007F5AD0B0FBAA
:102F1000F6F000EB800043006269B3FBF2F3053387
:102F2000604AA2FB0323DB0803F001029B1AC3F3F0
:102F30004F0311029A1EFD2A5ED822690A432168B6
:102F400013430B626268A168E068238B03439BB262
:102F50000B439BB213439BB243F400631D432368AE
:102F6000DD61236A012B50D8236A012B53D0002046
:102F70006064012384F8413070BDE421464803F0C9
:102F8000CBFC78E7E521444803F0C6FC7DE7E62169
:102F9000414803F0C1FC7FE7E7213F4803F0BCFC58
:102FA00080E7E8213C4803F0B7FC83E7E9213A4891
:102FB00003F0B2FC82E7EA21374803F0ADFC80E77A
:102FC000102699E7E36853B1B600B0FBF6F000EBCA
:102FD000800043006269B3FBF2F30533A0E7F6001B
:102FE000B0FBF6F000EB800043006269B3FBF2F344
:102FF000053395E700219DE7636C43F0100363649C
:103000002046FFF70DFF0120B6E74FF4B6712248C6
:1030100003F082FCA8E7244B63632268234B9A42A7
:103020001ED04FF04022D36923F47B6323F00F03BB
:10303000D36122681D4B9A4214D04FF040220223E4
:1030400013622268194B9A420ED04FF04022D06989
:103050006168B1F5007F09D0B9B94FF4807607E017
:10306000134AE0E7124AEAE7114AF0E74FF48076A4
:10307000A168E568238B2B439BB20B439BB2334380
:1030800043F400630343D36171E70026F0E70120B6
:10309000704700BF0030014098AB0008C0CE02006E
:1030A000B5300008CDCCCCCCD1320008003800407F
:1030B0000034004010B584B004460268936803935E
:1030C00090F84130DBB2042B06D094F84130DBB2EB
:1030D000032B2ED004B010BD039B13F0010F03D0BF
:1030E000536813F0400F21D1039B13F0400FECD035
:1030F00023685A6812F0200FE7D05A6822F0600265
:103100001204120C5A60002301932368DA680192BA
:103110009B680193019B012384F84130636C43F069
:10312000020363642046FFF77BFECEE7FFF75CFEF9
:10313000DAE7039B13F0020F04D023685B6813F0F7
:10314000800F1FD1039B13F0080FC3D023685A6868
:1031500012F0200FBED05A6822F0A0021204120C06
:103160005A600023029323689B680293029B012309
:1031700084F84130636C43F0040363642046FFF736
:103180004FFEA7E72046FFF712FEDBE7704700007F
:1031900008B5E9B9436A9A1C426202681B88D36089
:1031A000438D013B9BB24385438D9BB24BB9026873
:1031B000536823F0A0031B041B0C5360438E9BB287
:1031C00003B108BD012380F84130FFF7DFFFF8E7C6
:1031D000436A9A1C42621A880168134B99421ED0B6
:1031E0004FF04023DA60438D013B9BB24385438D12
:1031F0009BB2002BE5D102680B4B9A4212D04FF0E4
:103200004022536823F0A0035360438E9BB2002BEF
:10321000D7D1012380F84130FFF7B8FFD1E7A3F5FC
:103220008063DFE7014AECE70038004000340040EB
:1032300008B5E9B90368DA68C36A991CC1621A80E3
:10324000438E013B9BB24386438E9BB24BB90268CF
:10325000536823F060031B041B0C5360438D9BB227
:1032600003B108BD012380F84130FFF78FFFF8E775
:103270000268154B9A4222D04FF04023DA68C36AA5
:10328000991CC1621A80438E013B9BB24386438ED8
:103290009BB2002BE5D102680B4B9A4212D04FF043
:1032A0004022536823F060035360438D9BB2002B90
:1032B000D7D1012380F84130FFF768FFD1E7A3F5AC
:1032C0008063DBE7014AECE700380040003400404F
:1032D00010B584B0044603689A6803927C4A93420E
:1032E0005DD04FF040218A680292DA6902F44072A0
:1032F000B2F5007F04D0DA6912F4407F40F081809B
:10330000039A12F0020F03D05B6813F0800F48D1CC
:10331000029B13F0010F09D022686D4B9A4245D0F1
:103320004FF040235B6813F0400F42D1029B13F033
:10333000400F09D02268664B9A423FD04FF040239D
:103340005A6812F0200F3CD1039B13F0080F24D0D1
:1033500023685A6812F0200F1FD05A6822F0A0028A
:103360001204120C5A602268594B9A4247D04FF00F
:103370004022536823F060035360002301932368C5
:103380009B680193019B012384F84130636C43F0F7
:10339000040363642046FFF743FD04B010BD4D49AC
:1033A000A1E700212046FFF7F3FEB1E7A3F5806314
:1033B000B8E701212046FFF73BFFB7E7A3F580639D
:1033C000BEE75A6822F060025A602268536823F010
:1033D000A0031B041B0C5360002300932368DA68CE
:1033E00000929B680093009B012384F84130636C3A
:1033F00043F0020363642046FFF712FDA4E7354A59
:10340000B7E7029B13F0020F03D04B6813F0800F55
:103410004FD1039B13F0010F04D023685B6813F0B6
:10342000400F4BD1039B13F0400F1ED023685A6806
:1034300012F0200F19D05A6822F060021204120C08
:103440005A602268224B9A423DD04FF04022536886
:1034500023F0A0035360012384F84130636C43F0F0
:10346000020363642046FFF7DBFC029B13F0080FA6
:1034700093D02268164B9A4227D04FF040235A68C7
:1034800012F0200F89D05A6822F0A0025A602268F8
:10349000536823F060031B041B0C5360012384F862
:1034A0004130636C43F0040363642046FFF7B8FCCB
:1034B00073E701212046FFF76BFEAAE700212046B3
:1034C000FFF7B6FEAEE7034AC1E7A3F58063D6E790
:1034D000003800400034004000283AD038B5044697
:1034E00002681D4B9A4203D0AD211C4803F014FA28
:1034F0006368062B1ED8A368B3F5805F1FD22368CC
:103500004CF6CC421A60236845F255521A60236883
:1035100062685A602368A2689A60FDF731FE05462A
:103520002368DA6882B1FDF72BFE401B3028F7D9FB
:1035300003200DE0AE21094803F0EEF9DBE7AF21EF
:10354000064803F0E9F9DAE74AF6AA221A600020F1
:1035500038BD0120704700BF00300040D0AB0008EC
:1035600003684AF6AA221A6000207047002800F07B
:103570003B8270B582B0044603680F2B39D82368AC
:1035800013F0010F4DD063682BB1B3F5803F02D02B
:10359000B3F5A02F32D1A54B9B6803F00C03042B8D
:1035A00036D0A24B9B6803F00C03082B2BD063682A
:1035B000B3F5803F5FD0B3F5A02F62D09B4B1A6864
:1035C00022F480321A601A6822F480221A6063683A
:1035D000002B60D0FDF7D4FD0546944B1B6813F417
:1035E000003F1ED1FDF7CCFD401B6428F5D9032018
:1035F000FFE1F8218E4803F08FF9C0E7FD218C48E8
:1036000003F08AF9C7E7894B5B6813F4800FCED0CB
:10361000864B1B6813F4003F03D06368002B00F057
:10362000E581236813F0020F67D0E368012B41D8CE
:1036300023691F2B44D87D4B9B6813F00C0F4AD095
:103640007A4B9B6803F00C03082B3FD0E368002BF8
:1036500077D0784B01221A60FDF792FD0546734B37
:103660001B6813F0020F63D1FDF78AFD401B02288F
:10367000F5D90320BDE16D4A136843F4803313602C
:10368000A5E76A4B1A6842F480221A601A6842F46D
:1036900080321A609BE7FDF773FD0546634B1B689C
:1036A00013F4003FBDD0FDF76BFD401B6428F5D936
:1036B00003209EE140F22F115D4803F02DF9B7E79A
:1036C0004FF498715A4803F027F9B4E7574B5B68F9
:1036D00013F4800FBAD1554B1B6813F0020F04D0BE
:1036E000E368012B01D0012083E1504A136823F0E5
:1036F000F803216943EAC1031360236813F0080F3C
:1037000049D06369012B2ED8636993B34A4B0122D8
:103710001A60FDF735FD0546444B5B6F13F0020F51
:1037200039D1FDF72DFD401B0228F5D9032060E1BA
:103730003E4A136823F0F803216943EAC10313608A
:10374000DBE73C4B00221A60FDF71AFD0546374BBC
:103750001B6813F0020FD0D0FDF712FD401B0228AA
:10376000F5D9032045E14FF4B871314803F0D4F89E
:10377000CAE7314B00221A60FDF702FD05462B4BCC
:103780005B6F13F0020F06D0FDF7FAFC401B022816
:10379000F5D903202DE1236813F0040F00F0878092
:1037A000A368012B01D9052B38D1204B1B6C13F0DA
:1037B000805F39D1002301931C4B1A6C42F0805278
:1037C0001A641B6C03F080530193019B01251B4B72
:1037D0001B6813F4807F33D0A368012B44D0052BE2
:1037E00048D0124B1A6F22F001021A671A6F22F0AA
:1037F00004021A67A368002B46D0FDF7C1FC0646F9
:103800000A4B1B6F13F0020F4FD1FDF7B9FC801B61
:1038100041F288339842F3D90320EAE04FF4CE71A5
:10382000034803F079F8C0E70025D0E700380240EC
:103830000CAC000800004742800E47420070004078
:103840006E4A136843F480731360FDF799FC0646D3
:103850006A4B1B6813F4807FBED1FDF791FC801B7F
:103860000228F5D90320C4E0654A136F43F0010331
:103870001367BFE7624B1A6F42F004021A671A6FB0
:1038800042F001021A67B5E7FDF77AFC06465C4B89
:103890001B6F13F0020F08D0FDF772FC801B41F282
:1038A00088339842F3D90320A3E0002D3AD1A369CD
:1038B000022B3DD8A369002B00F09A80504A9268F1
:1038C00002F00C02082A00F09680022B78D1E369FE
:1038D00013B1B3F5800F31D1236A3F2B34D8636A1B
:1038E000C03BF02B36D8A36A022B05D0042B03D0A3
:1038F000062B01D0082B33D1E36A023B0D2B35D8C0
:10390000404B00221A60FDF73BFC05463C4B1B6810
:1039100013F0007F30D0FDF733FC401B0228F5D9AF
:10392000032066E0364A136C23F080531364BEE72D
:1039300040F2DF11344802F0EFFFBBE74FF4F471BF
:10394000314802F0E9FFC7E740F2E9112E4802F0E2
:10395000E3FFC4E74FF4F5712B4802F0DDFFC2E747
:1039600040F2EB11284802F0D7FFC5E74FF4F6719B
:10397000254802F0D1FFC3E7E369226A1343626A74
:1039800043EA8213A26A5208013A43EA0243E26A16
:1039900043EA02631A4A53601A4B01221A60FDF788
:1039A000EFFB0446164B1B6813F0007F06D1FDF7B2
:1039B000E7FB001B0228F5D903201AE0002018E0DD
:1039C000104B00221A60FDF7DBFB04460C4B1B6812
:1039D00013F0007F06D0FDF7D3FB001B0228F5D9BA
:1039E000032006E0002004E001207047012000E0F1
:1039F000002002B070BD0120FBE700BF0070004056
:103A000000380240600047420CAC0008324B9B6813
:103A100003F00C03042B5CD0082B01D02F48704717
:103A20002DE9F04B2C4B5A6802F03F025B6813F40F
:103A3000800F2BD0284B5B68C3F388131E460027EA
:103A40005C010025E41A65EB0705A90141EA9461D0
:103A5000A001001B61EB0501CB0043EA5073C400D9
:103A6000A01943EB07014B0243EAD053440220461E
:103A700019460023FDF742F8174B5B68C3F3014377
:103A800001335B00B0FBF3F0BDE8F08B124B5B68D9
:103A9000C3F388131E4600275C010025E41A65EB7A
:103AA0000705A90141EA9461A001001B61EB050132
:103AB000CB0043EA5073C400A01943EB07018B020B
:103AC00043EA90538402204619460023FDF716F876
:103AD000D2E70348704700BF003802400024F400DA
:103AE00000127A00002800F0F98070B504460D46F7
:103AF0000368013B0E2B11D8072D15D8794B1B6895
:103B000003F00F03AB4215D2EBB2764A1370136881
:103B100003F00F03AB420DD0012070BD4FF41471C0
:103B2000714802F0F9FEE7E740F251216E4802F0D9
:103B3000F3FEE3E7236813F0020F29D013F0040F1C
:103B400004D06A4A936843F4E0539360236813F007
:103B5000080F04D0654A936843F460439360A368F8
:103B60007BB1802B0DD0902B0BD0A02B09D0B02B8C
:103B700007D0C02B05D0D02B03D0E02B01D0F02BE9
:103B800033D15A4A936823F0F003A1680B43936042
:103B9000236813F0010F42D06368032B2BD86368AE
:103BA000012B2ED09A1E012A32D9504A126812F0E7
:103BB000020F00F095804D498A6822F003021343FA
:103BC0008B60FDF7DDFA0646484B9B6803F00C035B
:103BD0006268B3EB820F22D0FDF7D2FA801B41F26C
:103BE00088339842F0D9032097E74FF41D713E487F
:103BF00002F092FEC5E740F27B213B4802F08CFECA
:103C0000CDE73A4A126812F4003FD4D1012084E78C
:103C1000364A126812F0007FCDD101207DE7314B8A
:103C20001B6803F00F03AB4209D9EAB22D4B1A709F
:103C30001B6803F00F03AB4201D001206DE723683E
:103C400013F0040F14D0E3685BB1B3F5805F08D0C4
:103C5000B3F5A05F05D0B3F5C05F02D0B3F5E05F68
:103C600030D1224A936823F4E053E1680B43936018
:103C7000236813F0080F15D023695BB1B3F5805F9B
:103C800008D0B3F5A05F05D0B3F5C05F02D0B3F59F
:103C9000E05F1DD1154A936823F46043216943EA2C
:103CA000C1039360FFF7B2FE104B9B68C3F303138D
:103CB0000F4AD35CD8400F4B18600020FDF716FA6E
:103CC00000202AE740F2B921074802F025FEC8E7A4
:103CD0004FF43071044802F01FFEDBE7012070470B
:103CE00001201AE7003C02400CAC000800380240FA
:103CF00060AA00081C000020014B1868704700BF34
:103D00001C00002008B5FFF7F7FF044B9B68C3F3C6
:103D10008223034AD35CD84008BD00BF003802406C
:103D200070AA000808B5FFF7E7FF044B9B68C3F3D0
:103D30004233034AD35CD84008BD00BF003802407C
:103D400070AA000830B583B004460368013B0E2B0F
:103D500021D8236813F0050F51D0E368023B052BEF
:103D60001FD8A368C03BF02B21D86368023B3D2BD2
:103D700023D8A04B00221A60FDF702FA05469E4B9D
:103D80001B6813F0006F1ED0FDF7FAF9401B0228E4
:103D9000F5D903200DE140F6DD11984802F0BCFD95
:103DA000D7E740F6E411954802F0B6FDD9E740F6B2
:103DB000E511924802F0B0FDD7E740F6E7118F48D1
:103DC00002F0AAFDD5E76368A26843EA8213E268BD
:103DD00043EA0273884AC2F88430864B01221A6093
:103DE000FDF7CEF90546844B1B6813F0006F06D132
:103DF000FDF7C6F9401B0228F5D90320D9E0236856
:103E000013F0020F00F0CD802369B3F5807F7ED0E0
:103E1000B3F5007F7BD07A4A934278D002F58032A6
:103E2000934274D002F58032934270D002F5803212
:103E300093426CD002F58032934268D002F5803212
:103E4000934264D002F58032934260D002F5803212
:103E500093425CD002F58032934258D002F5803212
:103E6000934254D002F58032934250D002F5803212
:103E700093424CD002F58032934248D002F5803212
:103E8000934244D002F58032934240D002F5803212
:103E900093423CD002F58032934238D002F5803212
:103EA000934234D002F58032934230D002F5803212
:103EB00093422CD002F58032934228D002F5803212
:103EC000934224D002F58032934220D002F5803212
:103ED00093421CD002F58032934218D002F5803212
:103EE000934214D002F58032934210D002F5803212
:103EF00093420CD002F58032934208D002F5803212
:103F0000934204D040F616213C4802F005FD002300
:103F10000193394B1A6C42F080521A641B6C03F007
:103F200080530193019B374A136843F480731360F5
:103F3000FDF726F90546334B1B6813F4807F06D145
:103F4000FDF71EF9401B0228F5D9032031E02A4B6A
:103F50001B6F13F4407312D0226902F440729A422C
:103F60000DD0254B1A6F22F44072274901200860BA
:103F7000002008601A671B6F13F0010F1BD1236923
:103F800003F44072B2F5407F26D01B4A936823F4B5
:103F9000F813936018490B6F2269C2F30B021343A5
:103FA0000B67236813F0080F21D0227D174B1A608E
:103FB000002003B030BDFDF7E3F805460E4B1B6F44
:103FC00013F0020FDBD1FDF7DBF8401B41F2883321
:103FD0009842F3D90320ECE707498A6822F4F812E3
:103FE00023F0704323F4407313438B60D2E7002027
:103FF000DFE700BF680047420038024044AC0008D9
:104000000003020000700040400E4742E0114742AA
:1040100001282CD1184B9B6813F4000303D0012B0B
:1040200027D116487047144B5B6813F4800F15D0E6
:10403000114BD3F8843003F03F031148B0FBF3F089
:104040000D4AD2F88430C3F3881300FB03F0D2F892
:104050008430C3F30273B0FBF3F07047064BD3F820
:10406000843003F03F030748B0FBF3F0E8E700209B
:1040700070470020704700BF003802400080BB003E
:1040800000127A000024F400002800F0C88010B567
:1040900004460368634A934214D0A2F578429342DF
:1040A00010D002F5806293420CD002F57842934220
:1040B00008D002F5E052934204D04FF487715A4879
:1040C00002F02AFC636813B1B3F5827F6BD1A36859
:1040D0002BB1B3F5806F02D0B3F5004F69D1E3681F
:1040E000B3F5006F01D0002B69D1A369B3F5007F50
:1040F00003D013B1B3F5802F67D1E3696BB1082BFF
:104100000BD0102B09D0182B07D0202B05D0282B33
:1041100003D0302B01D0382B5DD1236A0BB1802B1B
:104120005FD1636A0BB1102B61D1636A33B9236924
:104130000BB1022B61D16369012B64D80023A36208
:1041400094F85130002B64D0022384F85130226857
:10415000136823F0400313606368A2681343E268A6
:1041600013432269134362691343A26902F4007284
:104170001343E2691343226A1343A16A22680B4383
:104180001360638B03F00403616A22680B4353607E
:104190002268D36923F40063D361002060650123A2
:1041A00084F8513010BD40F20F111F4802F0B4FBEB
:1041B0008DE74FF488711C4802F0AEFB8FE740F2A8
:1041C0001111194802F0A8FB8FE74FF489711648C6
:1041D00002F0A2FB91E740F21311134802F09CFB9E
:1041E0009BE74FF48A71104802F096FB99E740F282
:1041F00015110D4802F090FB97E74FF48C710A48B7
:1042000002F08AFB97E740F21911074802F084FB9D
:1042100094E784F85030204602F0A4FB94E7012094
:10422000704700BF0030014080AC000870B4036AE2
:1042300023F001030362036A4268846924F0730473
:104240000D6845EA040623F002048B6823430B4DF6
:10425000A84206D0426086614A684263036270BC2D
:10426000704723F00803CC68234323F0040322F4AF
:1042700040724C6914438A692243EBE70000014015
:1042800010B4036A046A24F001040462846924F00F
:10429000F00444EA021223F00A030B438261036232
:1042A0005DF8044B704710B4036A23F010030362F7
:1042B0008469036A24F4704444EA023223F0A003C0
:1042C00043EA0113826103625DF8044B704783681F
:1042D00023F0700341F0070119438160704710B467
:1042E000846824F47F4442EA03230B43234383601E
:1042F0005DF8044B704700002DE9F04104460E467E
:10430000036A23F480730362056A4768C36923F074
:1043100073080B6843EA080825F400758B6845EAC2
:1043200003251D4B984207D06760C4F81C80736852
:10433000E3632562BDE8F081CB680BB1082B19D18E
:10434000B369B3F5007F00D0D3B97369B3F5807F4B
:1043500000D0DBB925F40065F36845EA032525F4B0
:10436000806527F44057736947EA0317B36947EA42
:104370000317D9E741F21731084802F0CDFADFE719
:1043800041F21831054802F0C7FADEE741F219316F
:10439000024802F0C1FADDE700000140B8AC0008B5
:1043A0002DE9F04104460F46036A23F4805303626B
:1043B000056AD0F80480C66926F4E6460B6846EA2A
:1043C000032625F400558B6845EA03350D4B9842CA
:1043D00007D0C4F80480E6617B6823642562BDE8E9
:1043E000F0814B69B3F5807F00D02BB928F4804869
:1043F0007B6948EA8318ECE741F25D31024802F03C
:104400008BFAF3E700000140B8AC000810B5044691
:1044100003681D4A93421FD0B3F1804F1CD0A2F510
:104420007C42934218D002F58062934214D002F588
:104430008062934210D002F59A3293420CD002F57A
:104440008062934208D002F58062934204D04FF418
:10445000A5710E4802F060FA022384F8393023680F
:10446000196A41F21112114208D1196A40F244420C
:10447000114203D11A6822F001021A60012384F864
:104480003930002010BD00BF00000140B8AC00086A
:1044900010B504460368174A93421FD0B3F1804F0A
:1044A0001CD0A2F57C42934218D002F58062934260
:1044B00014D002F58062934210D002F59A329342F2
:1044C0000CD002F58062934208D002F580629342DC
:1044D00004D04FF4B171084802F01EFA2268D36884
:1044E00043F00103D3602268136843F001031360B3
:1044F000002010BD00000140B8AC0008704700006B
:1045000038B590F83830012B00F070820D46044623
:10451000012380F83830022380F839300B68B3F576
:10452000805F11D0B3F5005F0ED06BB1102B0BD0B4
:10453000202B09D0302B07D0402B05D0502B03D097
:10454000602B01D0702B4AD12268936823F47F43FB
:1045500023F0770393602B68402B00F0BF8144D990
:10456000702B00F0058100F28F80502B00F06481E9
:10457000602B40F0F6802368AD4A934217D0B3F128
:10458000804F14D0A2F57C42934210D002F5806295
:1045900093420CD002F58062934208D002F59A3221
:1045A000934204D040F6C471A24802F0B5F96B689A
:1045B000B3F5004F05D023B1022B02D00A2B40F0F7
:1045C0008181EB680F2B00F28381EA6869682068BB
:1045D000FFF769FE60212068FFF779FEC1E040F631
:1045E0007771944802F098F9AEE7102B00F0BC8187
:1045F00026D9202B00F0D981302B40F0B2802368DF
:104600008B4A934217D0B3F1804F14D0A2F57C426D
:10461000934210D002F5806293420CD002F5806282
:10462000934208D002F59A32934204D040F6F271D8
:10463000804802F071F930212068FFF748FE90E0D1
:10464000002B40F08E802368794A934217D0B3F153
:10465000804F14D0A2F57C42934210D002F58062C4
:1046600093420CD002F58062934208D002F59A3250
:10467000934204D04FF47E616E4802F04DF9002160
:104680002068FFF724FE6CE0B3F5805F40D0B3F5FF
:10469000005F66D12368664A934213D0B3F1804F1E
:1046A00010D0A2F57C4293420CD002F58062934276
:1046B00008D002F58062934204D040F6A4715D48B0
:1046C00002F02AF96B68B3F5004F05D023B1022B35
:1046D00002D00A2B40F09980AB684BB1B3F5805FF4
:1046E00006D0B3F5005F03D0B3F5405F40F0938090
:1046F000EB680F2B00F29580EB686A68A968206868
:10470000FFF7EDFD2268936843F48043936028E04F
:104710002368474A93421FD0B3F1804F1CD0A2F5C3
:104720007C42934218D002F58062934214D002F585
:104730008062934210D002F59A3293420CD002F577
:104740008062934208D002F58062934204D040F622
:104750008371384802F0E0F82268936823F0070379
:104760009360012384F83930002084F8380038BD84
:1047700023682F4A934213D0B3F1804F10D0A2F593
:104780007C4293420CD002F58062934208D002F53D
:104790008062934204D040F68C71264802F0BCF847
:1047A0006B68B3F5004F04D01BB1022B01D00A2B6C
:1047B00019D1AB6843B1B3F5805F05D0B3F5005FA5
:1047C00002D0B3F5405F14D1EB680F2B17D8EB681C
:1047D0006A68A9682068FFF782FD2268936843F041
:1047E00077039360BDE740F68E71124802F094F8AB
:1047F000DFE740F68F710F4802F08EF8E4E74FF4E0
:1048000079610C4802F088F8E1E740F6A6710948A2
:1048100002F082F860E740F6A771064802F07CF8E3
:1048200066E740F6A871034802F076F864E700BF37
:1048300000000140B8AC000823686D4A93421FD0C5
:10484000B3F1804F1CD0A2F57C42934218D002F500
:104850008062934214D002F58062934210D002F538
:104860009A3293420CD002F58062934208D002F54E
:104870008062934204D040F6B6715E4802F04CF874
:104880006B68B3F5004F04D01BB1022B01D00A2B8B
:104890000CD1EB680F2B0FD8EA6869682068FFF726
:1048A000EFFC50212068FFF712FD5AE740F6B9717E
:1048B000504802F031F8ECE740F6BA714D4802F08A
:1048C0002BF8E9E740F6C7714A4802F025F878E688
:1048D00040F6C871474802F01FF876E62368444A5C
:1048E00093421FD0B3F1804F1CD0A2F57C4293427B
:1048F00018D002F58062934214D002F58062934290
:1049000010D002F59A3293420CD002F580629342A5
:1049100008D002F58062934204D040F6D271354847
:1049200001F0FAFF6B68B3F5004F04D01BB1022B06
:1049300001D00A2B0CD1EB680F2B0FD8EA686968FD
:104940002068FFF79DFC40212068FFF7C0FC08E7C6
:1049500040F6D571274801F0DFFFECE740F6D6714D
:10496000244801F0D9FFE9E72368214A934217D090
:10497000B3F1804F14D0A2F57C42934210D002F5DF
:10498000806293420CD002F58062934208D002F517
:104990009A32934204D040F6E671164801F0BCFF0B
:1049A00010212068FFF793FCDBE62368104A93424E
:1049B00017D0B3F1804F14D0A2F57C42934210D0AF
:1049C00002F5806293420CD002F58062934208D0D7
:1049D00002F59A32934204D040F6EC71054801F09A
:1049E0009BFF20212068FFF772FCBAE60220BEE69A
:1049F00000000140B8AC000870477047704770472E
:104A000010B5044603681A6912F0020F11D0DA6873
:104A100012F0020F0DD06FF002021A61012303762B
:104A200003689B6913F0030F70D0FFF7E6FF0023C4
:104A3000237623681A6912F0040F12D0DA6812F094
:104A4000040F0ED06FF004021A610223237623684C
:104A50009B6913F4407F5FD02046FFF7CEFF002311
:104A6000237623681A6912F0080F12D0DA6812F060
:104A7000080F0ED06FF008021A6104232376236812
:104A8000DB6913F0030F4ED02046FFF7B6FF00237B
:104A9000237623681A6912F0100F12D0DA6812F028
:104AA000100F0ED06FF010021A61082323762368CE
:104AB000DB6913F4407F3DD02046FFF79EFF0023C3
:104AC000237623681A6912F0010F03D0DA6812F016
:104AD000010F36D123681A6912F0800F03D0DA680B
:104AE00012F0800F34D123681A6912F0400F03D0FE
:104AF000DA6812F0400F32D123681A6912F0200FE1
:104B000003D0DA6812F0200F30D110BDFFF774FF28
:104B10002046FFF773FF8AE72046FFF76DFF204628
:104B2000FFF76CFF9BE72046FFF766FF2046FFF785
:104B300065FFACE72046FFF75FFF2046FFF75EFF0B
:104B4000BDE76FF001021A61204601F04DFCC1E79C
:104B50006FF080021A61204600F075FBC3E76FF02A
:104B600040021A612046FFF74AFFC5E76FF02002B6
:104B70001A61204600F066FBC7E700000368234A7D
:104B800090420ED0B0F1804F0BD0A2F57C42904203
:104B900007D002F58062904203D002F58062904215
:104BA00003D123F070034A681343184A90421AD085
:104BB000B0F1804F17D0A2F57C42904213D002F59D
:104BC000806290420FD002F5806290420BD002F5D5
:104BD0009A32904207D002F58062904203D002F5EB
:104BE0008062904203D123F44073CA681343036088
:104BF0008B68C3620B688362044B984202D0012326
:104C0000436170470B690363F9E700BF000001408F
:104C1000002855D010B5044603682A4A93421ED096
:104C2000B3F1804F1BD0A2F57C42934217D002F51E
:104C30008062934213D002F5806293420FD002F556
:104C40009A3293420BD002F58062934207D002F56C
:104C50008062934203D0D7211B4801F05DFEA36818
:104C60003BB1102B05D0202B03D0402B01D0602B63
:104C700016D123692BB1B3F5807F02D0B3F5007F45
:104C800013D194F83930ABB1022384F83930211DA7
:104C90002068FFF773FF012384F83930002010BD2E
:104CA000D821094801F038FEE3E7D921064801F090
:104CB00033FEE6E784F83830204601F067FFE3E78B
:104CC0000120704700000140B8AC0008002858D00F
:104CD00010B5044603682C4A93421FD0B3F1804FAD
:104CE0001CD0A2F57C42934218D002F58062934218
:104CF00014D002F58062934210D002F59A329342AA
:104D00000CD002F58062934208D002F58062934293
:104D100004D040F2F1311D4801F0FEFDA3683BB123
:104D2000102B05D0202B03D0402B01D0602B16D1A7
:104D300023692BB1B3F5807F02D0B3F5007F14D186
:104D400094F83930BBB1022384F83930211D206832
:104D5000FFF714FF012384F83930002010BD40F222
:104D6000F2310A4801F0D8FDE2E740F2F33107489A
:104D700001F0D2FDE4E784F838302046FFF7BEFBAF
:104D8000E1E70120704700BF00000140B8AC000817
:104D90002DE9F04104460F46036A23F01003036235
:104DA000056AD0F80480866926F4E6460B6846EA70
:104DB000032625F020058B6845EA0315124B98421F
:104DC00007D0C4F80480A6617B68A3632562BDE8B0
:104DD000F081CB680BB1082B0FD125F08005FB6863
:104DE00045EA031525F0400528F440687B6948EA48
:104DF0008308BB6948EA8308E3E741F205210348D9
:104E000001F08AFDE9E700BF00000140B8AC0008EE
:104E100090F83830012B00F00B8170B516460D4626
:104E20000446012380F838303AB1042A05D0082A14
:104E300003D00C2A01D0182A1AD12B68602B01D07C
:104E4000702B1BD1AB680BB1022B1DD12B690BB1A1
:104E5000042B1FD1022384F839300C2E57D8DFE8F9
:104E600006F01F5656565D5656568E565656BA0082
:104E700040F648416F4801F04FFDDEE740F64941FA
:104E80006C4801F049FDDDE740F64A41694801F010
:104E900043FDDBE740F64B41664801F03DFDD9E7B5
:104EA0002368654A93421FD0B3F1804F1CD0A2F50E
:104EB0007C42934218D002F58062934214D002F5EE
:104EC0008062934210D002F59A3293420CD002F5E0
:104ED0008062934208D002F58062934204D040F68B
:104EE0005341544801F018FD29462068FFF79EF908
:104EF0002268936943F0080393612268936923F061
:104F0000040393612268936929690B439361012328
:104F100084F83930002084F8380070BD2368464A90
:104F2000934217D0B3F1804F14D0A2F57C42934244
:104F300010D002F5806293420CD002F58062934259
:104F400008D002F59A32934204D040F662413948C3
:104F500001F0E2FC29462068FFF71AFF22689369F6
:104F600043F4006393612268936923F4806393613F
:104F700022689369296943EA01239361C7E723689B
:104F80002D4A934213D0B3F1804F10D0A2F57C424A
:104F900093420CD002F58062934208D002F5806201
:104FA000934204D040F67141224801F0B5FC2946F5
:104FB0002068FFF7A1F92268D36943F00803D361A1
:104FC0002268D36923F00403D3612268D369296975
:104FD0000B43D3619BE72368174A934213D0B3F185
:104FE000804F10D0A2F57C4293420CD002F5806233
:104FF000934208D002F58062934204D04FF4486196
:105000000C4801F089FC29462068FFF7C9F922689D
:10501000D36943F40063D3612268D36923F48063C6
:10502000D3612268D369296943EA0123D3616EE71A
:1050300002207047B8AC00080000014070B504467B
:105040000D4616461E4B98421FD0B0F1804F1CD023
:10505000A3F57C43984218D003F58063984214D09E
:1050600003F58063984210D003F59A3398420CD030
:1050700003F58063984208D003F58063984204D01A
:1050800041F288210F4801F047FC65B1042D0AD098
:10509000082D08D00C2D06D0182D04D041F28921FE
:1050A000084801F039FC012303FA05F2236A23EAD8
:1050B00002032362236A06FA05F51D43256270BDCB
:1050C00000000140B8AC000838B504460D4603683E
:1050D000244A93422CD0B3F1804F29D0A2F57C42D0
:1050E000934225D002F58062934221D002F580627E
:1050F00093421DD01C4A934223D01C4A934225D090
:105100001B4A934225D040F252411A4801F004FC58
:10511000012229462068FFF791FF2368114A934234
:105120001AD02268136843F001031360002038BDD1
:10513000002DEDD0042DEBD0082DE9D00C2DD9D1C8
:10514000E6E7002DE4D0042DD7D1E1E7002DDFD034
:10515000D6E7002DDCD0D6E75A6C42F400425A6400
:10516000DFE700BF00000140004001400044014073
:1051700000480140B8AC000838B504460D46036845
:105180002E4A934213D0B3F1804F10D0A2F57C4247
:1051900093420CD002F58062934208D002F58062FF
:1051A000934204D040F24A61254801F0B5FB2B68D8
:1051B0006BB1102B0BD0202B09D0302B07D0402BFC
:1051C00005D0502B03D0602B01D0702B27D16B68FA
:1051D000802B00D04BBB94F83830012B2BD0012210
:1051E00084F83820022384F8393021684B6823F092
:1051F00070034B6021684B68286803434B6021684B
:105200008B6823F080038B6021688B686868034398
:105210008B6084F83920002084F8380038BD40F2D3
:105220004B61074801F078FBD1E740F24C6104483C
:1052300001F072FBCFE70220F0E700BF0000014061
:10524000F0AC0008704770470268D36823F490738D
:10525000D3600268536923F001035361202380F86F
:105260003A30704790F83930DBB2212B2AD183686D
:10527000B3F5805F16D0036A5A1C02621A7803687D
:105280005A60C38C013B9BB2C384EBB90268D368FC
:1052900023F08003D3600268D36843F04003D360F7
:1052A00000207047036A1B880268C3F30803536039
:1052B00003691BB9036A02330362E2E7036A01333D
:1052C0000362DEE702207047002070472DE9F843B3
:1052D00004464268B44B9A4200F29C80E3681BB1DA
:1052E000B3F5005F40F09C80236933B1B3F5806F64
:1052F00003D0B3F5C06F40F0998063694FF6F37245
:10530000134200D123B940F68811A84801F004FBEC
:1053100021680A6922F44052E36813430B61216853
:10532000CA6822F4164222F00C02A36820690343E3
:1053300060690343E06903431343CB6021684A6912
:1053400022F44072A36913434B61E369B3F5004F44
:1053500072D02368964A934200F02E8102F5806253
:10536000934200F02981FEF7CDFC00EB800000EBBA
:1053700080006568AD00B0FBF5F58E4FA7FB0535E5
:105380006D092E01FEF7BEFC00EB800000EB8000F3
:105390006568AD00B0FBF5F9FEF7B4FC00EB8000EA
:1053A00000EB80006568AD00B0FBF5F5A7FB0535A7
:1053B0006D094FF0640808FB15952D013235A7FBE8
:1053C00005356D0905F0F0053544FEF79BFC00EB53
:1053D000800000EB80006668B600B0FBF6F6FEF7D2
:1053E00091FC00EB800000EB800063689B00B0FB49
:1053F000F3F0A7FB0030400908FB10684FEA0818DB
:1054000008F13208A7FB0837C7F3431723682F4476
:105410009F6027E140F68511644801F07DFA5DE761
:1054200040F68611614801F077FA5DE740F6871192
:105430005E4801F071FA60E723685D4A93425BD0F1
:1054400002F58062934257D0FEF75CFC00EB8000CF
:1054500000EB800065686D00B0FBF5F5554FA7FBCC
:1054600005356D092E01FEF74DFC00EB800000EBC9
:10547000800065686D00B0FBF5F9FEF743FC00EBBA
:10548000800000EB800065686D00B0FBF5F5A7FBC0
:1054900005356D094FF0640808FB1595ED003235B0
:1054A000A7FB05356D096D0005F4F8753544FEF769
:1054B00029FC00EB800000EB800066687600B0FB02
:1054C000F6F6FEF71FFC00EB800000EB800063683F
:1054D0005B00B0FBF3F3A7FB03235B0908FB136836
:1054E0004FEAC80808F13208A7FB0837C7F342178C
:1054F00023682F449F60B5E0FEF714FC00EB8000AA
:1055000000EB800065686D00B0FBF5F5294FA7FB47
:1055100005356D092E01FEF705FC00EB800000EB60
:10552000800065686D00B0FBF5F9FEF7FBFB00EB52
:10553000800000EB800065686D00B0FBF5F5A7FB0F
:1055400005356D094FF0640808FB1595ED003235FF
:10555000A7FB05356D096D0005F4F8753544FEF7B8
:10556000E1FB00EB800000EB800066687600B0FB9A
:10557000F6F6FEF7D7FB00EB800000EB80006368D7
:105580005B00B0FBF3F3A7FB03235B0908FB136885
:105590004FEAC80808F13208A7FB0837C7F34217DB
:1055A00023682F449F605DE0A037A0002CAD000869
:1055B000001001401F85EB51FEF7B4FB00EB8000AB
:1055C00000EB80006568AD00B0FBF5F5264FA7FB4A
:1055D00005356D092E01FEF7A5FB00EB800000EB01
:1055E00080006568AD00B0FBF5F9FEF79BFB00EBB2
:1055F000800000EB80006568AD00B0FBF5F5A7FB0F
:1056000005356D094FF0640808FB15952D013235FD
:10561000A7FB05356D0905F0F0053544FEF782FB63
:1056200000EB800000EB80006668B600B0FBF6F689
:10563000FEF778FB00EB800000EB800063689B00C6
:10564000B0FBF3F0A7FB0030400908FB10684FEAFD
:10565000081808F13208A7FB0837C7F34317236877
:105660002F449F60BDE8F8831F85EB512DE9F04181
:1056700005460F4616469846069C2B681B6837EA77
:1056800003030CBF01230023B3421DD1B4F1FF3F3C
:10569000F3D02CB1FBF774FDA0EB0800A042ECD9CD
:1056A0002A68D36823F4D073D3602A68536923F03F
:1056B00001035361202385F8393085F83A300023FF
:1056C00085F83830032000E00020BDE8F0810000BC
:1056D000002877D010B5044683690BB303683A4AB3
:1056E00093420CD0A2F54C42934208D002F55042AE
:1056F000934204D04FF48071344801F00DF9A3694E
:10570000FBB1B3F5807F1CD0B3F5007F19D0B3F5A2
:10571000407F16D040F201112C4801F0FDF810E056
:105720000368294A93420CD0A2F54C42934208D018
:1057300002F55042934204D040F20511234801F093
:10574000EBF8A36813B1B3F5805F29D1E36913B116
:10575000B3F5004F2AD194F839306BB3242384F881
:1057600039302268D36823F40053D3602046FFF712
:10577000ADFD2268136923F49043136122685369D5
:1057800023F02A0353612268D36843F40053D360A3
:105790000020E063202384F8393084F83A3010BDCB
:1057A00040F20711094801F0B7F8CFE74FF48471D0
:1057B000064801F0B1F8CEE784F83830204601F011
:1057C000F9FACBE701207047001001402CAD00082A
:1057D0002DE9F04182B01E4690F83930DBB2202B23
:1057E00055D104460D469046002955D0002A55D083
:1057F00090F83830012B53D0012380F83830002343
:10580000C363212380F83930FBF7BAFC0746A4F8BC
:105810002480A4F8268010E000963B4600228021D8
:105820002046FFF723FF00283CD12B882268C3F3D2
:10583000080353602369C3B90235E38C9BB2B3B14B
:10584000E38C013B9BB2E384A368B3F5805FE3D0B4
:1058500000963B46002280212046FFF707FF18BB39
:105860002A7823685A600135E7E70135E5E70096B5
:105870003B46002240212046FFF7F8FE0346A8B928
:10588000202284F83920002284F8382000E0022306
:10589000184602B0BDE8F0810123F9E70123F7E7DC
:1058A0000223F5E70323F3E70323F1E70323EFE7FD
:1058B00090F83A30DBB2202B1BD1E1B1EAB190F87D
:1058C0003830012B1BD081628285C2850023C363DF
:1058D000222280F83A2080F8383001684A6942F084
:1058E00001024A610168CA6842F49072CA601846AF
:1058F0007047022070470120704701207047022046
:105900007047704708B50168CB6823F04003CB604F
:10591000202380F83930FFF7F4FF002008BD7047DE
:1059200008B590F83A30DBB2222B40D18368B3F54A
:10593000805F0ED0036903BB03685A68836A591CF1
:1059400081621A70C38D013B9BB2C385F3B1002005
:105950002EE0826A036943B903685B68C3F30803F6
:105960001380836A02338362ECE703685B68DBB20F
:105970001380836A01338362E4E703685B68826AA9
:10598000511C816203F07F031370DBE70268D36868
:1059900023F49073D3600268536923F001035361C9
:1059A000202380F83A30FFF7BAFF002000E0022001
:1059B00008BD704710B5044602681368D168526983
:1059C00013F00F0005D113F0200F02D011F0200FBB
:1059D00053D1002867D012F0010202D111F4907F58
:1059E00061D013F0010F06D011F4807F03D0E06B7B
:1059F00040F00100E06313F0040F04D01AB1E06B33
:105A000040F00200E06313F0020F04D01AB1E06B23
:105A100040F00400E06313F0080F04D01AB1E26B09
:105A200042F00802E263E26B002A48D013F0200F34
:105A300002D011F0200F24D123685B6903F04003EA
:105A4000E26B12F0080F00D13BB32046FFF7FCFBDE
:105A500023685A6912F0400F1BD05A6922F04002A5
:105A60005A61636B8BB11A4A1A65606BFCF756FB7F
:105A700028B3606B036D984721E02046FFF750FF85
:105A80001DE02046FFF74CFFD6E72046FFF791FFC9
:105A900015E02046FFF78DFF11E02046FFF789FF54
:105AA0000023E3630BE013F0800F02D011F0800FAE
:105AB00006D113F0400F02D011F0400F04D110BDF9
:105AC0002046FFF7CFFBFAE72046FFF71BFFF6E77C
:105AD000D55A000808B5806B0023C385C384FFF73F
:105AE00068FF08BDF0B585B007460D461646BCB246
:105AF0004FF0FF33012221461948FDF791F80028A5
